{
  "_format": "hh-sol-artifact-1",
  "contractName": "Transactions",
  "sourceName": "contracts/Transactions.sol",
  "abi": [
    {
      "anonymous": false,
      "inputs": [
        {
          "indexed": false,
          "internalType": "address",
          "name": "from",
          "type": "address"
        },
        {
          "indexed": false,
          "internalType": "address",
          "name": "reciever",
          "type": "address"
        },
        {
          "indexed": false,
          "internalType": "uint256",
          "name": "amount",
          "type": "uint256"
        },
        {
          "indexed": false,
          "internalType": "string",
          "name": "message",
          "type": "string"
        },
        {
          "indexed": false,
          "internalType": "uint256",
          "name": "timestamp",
          "type": "uint256"
        },
        {
          "indexed": false,
          "internalType": "string",
          "name": "keyword",
          "type": "string"
        }
      ],
      "name": "Transfer",
      "type": "event"
    },
    {
      "inputs": [
        {
          "internalType": "address",
          "name": "_receiver",
          "type": "address"
        },
        {
          "internalType": "uint256",
          "name": "_amount",
          "type": "uint256"
        },
        {
          "internalType": "string",
          "name": "_message",
          "type": "string"
        },
        {
          "internalType": "string",
          "name": "_keyword",
          "type": "string"
        }
      ],
      "name": "addToBlockchain",
      "outputs": [],
      "stateMutability": "nonpayable",
      "type": "function"
    },
    {
      "inputs": [],
      "name": "getAllTransacions",
      "outputs": [
        {
          "components": [
            {
              "internalType": "address",
              "name": "sender",
              "type": "address"
            },
            {
              "internalType": "address",
              "name": "receiver",
              "type": "address"
            },
            {
              "internalType": "uint256",
              "name": "amount",
              "type": "uint256"
            },
            {
              "internalType": "string",
              "name": "message",
              "type": "string"
            },
            {
              "internalType": "uint256",
              "name": "timestamp",
              "type": "uint256"
            },
            {
              "internalType": "string",
              "name": "keyword",
              "type": "string"
            }
          ],
          "internalType": "struct Transactions.TransferStruct[]",
          "name": "",
          "type": "tuple[]"
        }
      ],
      "stateMutability": "view",
      "type": "function"
    },
    {
      "inputs": [],
      "name": "getTransactionCount",
      "outputs": [
        {
          "internalType": "uint256",
          "name": "",
          "type": "uint256"
        }
      ],
      "stateMutability": "view",
      "type": "function"
    },
    {
      "inputs": [],
      "name": "transactionCount",
      "outputs": [
        {
          "internalType": "uint256",
          "name": "",
          "type": "uint256"
        }
      ],
      "stateMutability": "view",
      "type": "function"
    },
    {
      "inputs": [
        {
          "internalType": "uint256",
          "name": "",
          "type": "uint256"
        }
      ],
      "name": "transactions",
      "outputs": [
        {
          "internalType": "address",
          "name": "sender",
          "type": "address"
        },
        {
          "internalType": "address",
          "name": "receiver",
          "type": "address"
        },
        {
          "internalType": "uint256",
          "name": "amount",
          "type": "uint256"
        },
        {
          "internalType": "string",
          "name": "message",
          "type": "string"
        },
        {
          "internalType": "uint256",
          "name": "timestamp",
          "type": "uint256"
        },
        {
          "internalType": "string",
          "name": "keyword",
          "type": "string"
        }
      ],
      "stateMutability": "view",
      "type": "function"
    }
  ],
  "bytecode": "0x608060405234801561001057600080fd5b50610ddb806100206000396000f3fe608060405234801561001057600080fd5b50600436106100575760003560e01c80632e7700f01461005c5780639ace38c21461007a578063b77bf600146100af578063cc2d7ead146100cd578063fc855aef146100e9575b600080fd5b610064610107565b6040516100719190610afe565b60405180910390f35b610094600480360381019061008f919061087d565b610110565b6040516100a696959493929190610a6d565b60405180910390f35b6100b76102ac565b6040516100c49190610afe565b60405180910390f35b6100e760048036038101906100e291906107ea565b6102b2565b005b6100f1610472565b6040516100fe9190610adc565b60405180910390f35b60008054905090565b6001818154811061012057600080fd5b90600052602060002090600602016000915090508060000160009054906101000a900473ffffffffffffffffffffffffffffffffffffffff16908060010160009054906101000a900473ffffffffffffffffffffffffffffffffffffffff169080600201549080600301805461019590610c5e565b80601f01602080910402602001604051908101604052809291908181526020018280546101c190610c5e565b801561020e5780601f106101e35761010080835404028352916020019161020e565b820191906000526020600020905b8154815290600101906020018083116101f157829003601f168201915b50505050509080600401549080600501805461022990610c5e565b80601f016020809104026020016040519081016040528092919081815260200182805461025590610c5e565b80156102a25780601f10610277576101008083540402835291602001916102a2565b820191906000526020600020905b81548152906001019060200180831161028557829003601f168201915b5050505050905086565b60005481565b6000808154809291906102c490610c90565b919050555060016040518060c001604052803373ffffffffffffffffffffffffffffffffffffffff1681526020018673ffffffffffffffffffffffffffffffffffffffff16815260200185815260200184815260200142815260200183815250908060018154018082558091505060019003906000526020600020906006020160009091909190915060008201518160000160006101000a81548173ffffffffffffffffffffffffffffffffffffffff021916908373ffffffffffffffffffffffffffffffffffffffff16021790555060208201518160010160006101000a81548173ffffffffffffffffffffffffffffffffffffffff021916908373ffffffffffffffffffffffffffffffffffffffff1602179055506040820151816002015560608201518160030190805190602001906104019291906106b5565b506080820151816004015560a08201518160050190805190602001906104289291906106b5565b5050507f416cfa4330a4565f45c2fd2dd4826a83a37443aba2ce6f79477c7355afac35fa33858585428660405161046496959493929190610a6d565b60405180910390a150505050565b60606001805480602002602001604051908101604052809291908181526020016000905b828210156106ac57838290600052602060002090600602016040518060c00160405290816000820160009054906101000a900473ffffffffffffffffffffffffffffffffffffffff1673ffffffffffffffffffffffffffffffffffffffff1673ffffffffffffffffffffffffffffffffffffffff1681526020016001820160009054906101000a900473ffffffffffffffffffffffffffffffffffffffff1673ffffffffffffffffffffffffffffffffffffffff1673ffffffffffffffffffffffffffffffffffffffff1681526020016002820154815260200160038201805461057f90610c5e565b80601f01602080910402602001604051908101604052809291908181526020018280546105ab90610c5e565b80156105f85780601f106105cd576101008083540402835291602001916105f8565b820191906000526020600020905b8154815290600101906020018083116105db57829003601f168201915b505050505081526020016004820154815260200160058201805461061b90610c5e565b80601f016020809104026020016040519081016040528092919081815260200182805461064790610c5e565b80156106945780601f1061066957610100808354040283529160200191610694565b820191906000526020600020905b81548152906001019060200180831161067757829003601f168201915b50505050508152505081526020019060010190610496565b50505050905090565b8280546106c190610c5e565b90600052602060002090601f0160209004810192826106e3576000855561072a565b82601f106106fc57805160ff191683800117855561072a565b8280016001018555821561072a579182015b8281111561072957825182559160200191906001019061070e565b5b509050610737919061073b565b5090565b5b8082111561075457600081600090555060010161073c565b5090565b600061076b61076684610b4a565b610b19565b90508281526020810184848401111561078357600080fd5b61078e848285610c1c565b509392505050565b6000813590506107a581610d77565b92915050565b600082601f8301126107bc57600080fd5b81356107cc848260208601610758565b91505092915050565b6000813590506107e481610d8e565b92915050565b6000806000806080858703121561080057600080fd5b600061080e87828801610796565b945050602061081f878288016107d5565b935050604085013567ffffffffffffffff81111561083c57600080fd5b610848878288016107ab565b925050606085013567ffffffffffffffff81111561086557600080fd5b610871878288016107ab565b91505092959194509250565b60006020828403121561088f57600080fd5b600061089d848285016107d5565b91505092915050565b60006108b283836109bf565b905092915050565b6108c381610be0565b82525050565b6108d281610be0565b82525050565b60006108e382610b8a565b6108ed8185610bad565b9350836020820285016108ff85610b7a565b8060005b8581101561093b578484038952815161091c85826108a6565b945061092783610ba0565b925060208a01995050600181019050610903565b50829750879550505050505092915050565b600061095882610b95565b6109628185610bbe565b9350610972818560208601610c2b565b61097b81610d66565b840191505092915050565b600061099182610b95565b61099b8185610bcf565b93506109ab818560208601610c2b565b6109b481610d66565b840191505092915050565b600060c0830160008301516109d760008601826108ba565b5060208301516109ea60208601826108ba565b5060408301516109fd6040860182610a4f565b5060608301518482036060860152610a15828261094d565b9150506080830151610a2a6080860182610a4f565b5060a083015184820360a0860152610a42828261094d565b9150508091505092915050565b610a5881610c12565b82525050565b610a6781610c12565b82525050565b600060c082019050610a8260008301896108c9565b610a8f60208301886108c9565b610a9c6040830187610a5e565b8181036060830152610aae8186610986565b9050610abd6080830185610a5e565b81810360a0830152610acf8184610986565b9050979650505050505050565b60006020820190508181036000830152610af681846108d8565b905092915050565b6000602082019050610b136000830184610a5e565b92915050565b6000604051905081810181811067ffffffffffffffff82111715610b4057610b3f610d37565b5b8060405250919050565b600067ffffffffffffffff821115610b6557610b64610d37565b5b601f19601f8301169050602081019050919050565b6000819050602082019050919050565b600081519050919050565b600081519050919050565b6000602082019050919050565b600082825260208201905092915050565b600082825260208201905092915050565b600082825260208201905092915050565b6000610beb82610bf2565b9050919050565b600073ffffffffffffffffffffffffffffffffffffffff82169050919050565b6000819050919050565b82818337600083830152505050565b60005b83811015610c49578082015181840152602081019050610c2e565b83811115610c58576000848401525b50505050565b60006002820490506001821680610c7657607f821691505b60208210811415610c8a57610c89610d08565b5b50919050565b6000610c9b82610c12565b91507fffffffffffffffffffffffffffffffffffffffffffffffffffffffffffffffff821415610cce57610ccd610cd9565b5b600182019050919050565b7f4e487b7100000000000000000000000000000000000000000000000000000000600052601160045260246000fd5b7f4e487b7100000000000000000000000000000000000000000000000000000000600052602260045260246000fd5b7f4e487b7100000000000000000000000000000000000000000000000000000000600052604160045260246000fd5b6000601f19601f8301169050919050565b610d8081610be0565b8114610d8b57600080fd5b50565b610d9781610c12565b8114610da257600080fd5b5056fea26469706673582212208156f007294dbddefd7d27f2d35d97569e27c9c9869fd01c6022c3bd173cc0d864736f6c63430008000033",
  "linkReferences": {},
  "deployedLinkReferences": {}
}